:100000000C9463000C948B000C948B000C9485046E
:100010000C9485040C9485040C948B000C948B0038
:100020000C948B000C948B000C948B000C948B0024
:100030000C948B000C948B000C948B000C948B0014
:100040000C943B040C948B000C9409040C94E30373
:100050000C948B000C948B000C948B000C948B00F4
:100060000C948B000C948B000000000024002700EF
:100070002A0000000008000201000003040700003D
:1000800000000000000000000000230026002900FE
:1000900000000000250028002B00040404040404D0
:1000A0000404020202020202030303030303010227
:1000B00004081020408001020408102001020408F6
:1000C0001020FD04590811241FBECFEFD8E0DEBF79
:1000D000CDBF22E0AEEAB1E001C01D92A73CB2075D
:1000E000E1F711E0A0E0B1E0E2ECF5E102C005903B
:1000F0000D92AE3AB107D9F710E0C2E6D0E004C0E5
:100100002197FE010E94DC08C136D107C9F70E9481
:10011000CD050C94D40A0C940000AF92BF92CF92FC
:10012000DF92EF92FF920F931F93CF93DF936C01B7
:100130007B018B01040F151FEB015E01AE18BF0898
:10014000C017D10759F06991D601ED91FC9101904A
:10015000F081E02DC6010995892B79F7C501DF9162
:10016000CF911F910F91FF90EF90DF90CF90BF90B4
:10017000AF900895FC01538D448D252F30E0842FDE
:1001800090E0821B930B541710F0CF9608950197BF
:100190000895FC01918D828D981761F0A28DAE0FAC
:1001A000BF2FB11D5D968C91928D9F5F9F73928F33
:1001B00090E008958FEF9FEF0895FC01918D828D5F
:1001C000981731F0828DE80FF11D858D90E008952C
:1001D0008FEF9FEF0895FC01918D228D892F90E084
:1001E000805C9F4F821B91098F73992708958BEF35
:1001F00091E00E94EB0021E0892B09F420E0822F9E
:10020000089580E090E0892B29F00E94F700811189
:100210000C9400000895FC01A48DA80FB92FB11D06
:10022000A35ABF4F2C91848D90E001968F7399272C
:10023000848FA689B7892C93A089B1898C9183700A
:1002400080648C93938D848D981306C00288F38903
:10025000E02D80818F7D80830895EF92FF920F9330
:100260001F93CF93DF93EC0181E0888F9B8D8C8D62
:1002700098131AC0E889F989808185FF15C09FB756
:10028000F894EE89FF896083E889F9898081837019
:10029000806480839FBF81E090E0DF91CF911F91C8
:1002A0000F91FF90EF900895F62E0B8D10E00F5FE9
:1002B0001F4F0F731127E02E8C8D8E110CC00FB6BF
:1002C00007FCFACFE889F989808185FFF5CFCE0157
:1002D0000E940B01F1CFEB8DEC0FFD2FF11DE35AC6
:1002E000FF4FF0829FB7F8940B8FEA89FB898081DA
:1002F0008062CFCFCF93DF93EC01888D8823B9F054
:10030000AA89BB89E889F9898C9185FD03C0808120
:1003100086FD0DC00FB607FCF7CF8C9185FFF2CF9D
:10032000808185FFEDCFCE010E940B01E9CFDF91E7
:10033000CF910895833081F028F4813099F0823094
:10034000A9F008958730A9F08830C9F08430B1F45D
:10035000809180008F7D03C0809180008F77809393
:100360008000089584B58F7784BD089584B58F7D0E
:10037000FBCF8091B0008F778093B000089580917B
:10038000B0008F7DF9CF1F93CF93DF93282F30E0FC
:10039000F901EE58FF4F8491F901E255FF4FD491D6
:1003A000F901E656FF4FC491CC23A9F0162F811115
:1003B0000E949A01EC2FF0E0EE0FFF1FE057FF4F75
:1003C000A591B4918FB7F894EC91111108C0D09514
:1003D000DE23DC938FBFDF91CF911F910895DE2B39
:1003E000F8CFCF93DF9390E0FC01E255FF4F2491CB
:1003F00086569F4FFC0184918823D1F090E0880FAE
:10040000991FFC01E859FF4FA591B491FC01E057F9
:10041000FF4FC591D49161110EC09FB7F8948C9194
:10042000E22FE0958E238C932881E223E8839FBFFF
:10043000DF91CF9108958FB7F894EC91E22BEC9374
:100440008FBFF6CF3FB7F8948091F3019091F401FC
:10045000A091F501B091F60126B5A89B05C02F3FEC
:1004600019F00196A11DB11D3FBFBA2FA92F982FDA
:100470008827BC01CD01620F711D811D911D42E0D5
:10048000660F771F881F991F4A95D1F708958F929D
:100490009F92AF92BF92CF92DF92EF92FF924B0169
:1004A0005C010E9422026B017C010E9422026C19F5
:1004B0007D098E099F09683E734081059105A8F367
:1004C00021E0821A9108A108B10888EEC80E83E0E5
:1004D000D81EE11CF11C81149104A104B10429F778
:1004E000FF90EF90DF90CF90BF90AF909F908F9054
:1004F00008952091F9013091FA012817390771F414
:100500009091F7018091F801981741F0E091F7017F
:10051000F0E0E255FE4F808190E008958FEF9FEF6D
:1005200008950895EF92FF920F931F93CF93DF9357
:10053000DC015C96ED90FC905D97E114F10479F498
:1005400081E090E013969C938E93129790E080E068
:10055000DF91CF911F910F91FF90EF9008955196E9
:10056000ED91FC91529750968C915097982F9095C1
:100570000FB75E962C915E97122F127021FD609539
:10058000F8942081112319F1282B2083E70121976A
:10059000F1F728E0462F50E0308160FF1AC0382B79
:1005A0003083E7012197F1F7BA01759567952150DE
:1005B00089F7112381F08081892380830FBF5C96A6
:1005C0008D919C910197F1F781E090E0C1CF2923B3
:1005D000DCCF3923E5CF9081892BEFCF2091F90132
:1005E0003091FA012817390771F48091F8012091B0
:1005F000F70190E0805C9F4F821B910960E470E0FE
:100600000E94B408089590E080E008952091F901D7
:100610003091FA0128173907B9F49091F7018091C8
:10062000F801981789F0E091F701F0E0E255FE4FEC
:1006300080812091F70130E02F5F3F4F2F733327E8
:100640002093F70190E008958FEF9FEF089590E0D9
:1006500080E00895FB0101900020E9F73197AF0198
:10066000461B570BDC01ED91FC910280F381E02DDC
:100670000994CF93DF93BC018BEF91E00E942A0392
:10068000EC016AE271E08BEF91E00E942A038C0F8B
:100690009D1FDF91CF9108950F931F93CF93DF9309
:1006A000EC01FB014481558160817181E881F98110
:1006B0000280F381E02D09958C016AE271E0CE01A0
:1006C0000E942A03800F911FDF91CF911F910F91FC
:1006D00008950F931F93CF93DF93EC018881998145
:1006E000009759F02A813B812617370730F081E0C7
:1006F000DF91CF911F910F9108958B016F5F7F4F15
:100700000E94070A009759F0998388831B830A8304
:100710002C813D81232B59F7FC011082E8CF80E02A
:10072000E7CFCF93DF93EC0188819981009711F097
:100730000E947E09198218821D821C821B821A82E5
:10074000DF91CF910895EF92FF920F931F93CF9374
:10075000DF93EC017B018A01BA010E9469038111D8
:100760000BC0CE010E949103CE01DF91CF911F916A
:100770000F91FF90EF9008951D830C83B70188813E
:1007800099810E94CD0AF0CFCF93DF93EC01FB015A
:100790008617970749F0608171816115710541F0F5
:1007A000448155810E94A303CE01DF91CF9108952A
:1007B0000E949103F9CFFC0180819181009711F093
:1007C0000C947E0908951F920F920FB60F92112478
:1007D0002F933F934F935F936F937F938F939F9349
:1007E000AF93BF93EF93FF938BEF91E00E940B01C8
:1007F000FF91EF91BF91AF919F918F917F916F91F9
:100800005F914F913F912F910F900FBE0F901F90CE
:1008100018951F920F920FB60F9211242F938F935A
:100820009F93EF93FF93E0910B02F0910C02808174
:10083000E0911102F091120282FD1BC09081809123
:1008400014028F5F8F7320911502821741F0E0919F
:100850001402F0E0E550FE4F958F80931402FF9153
:10086000EF919F918F912F910F900FBE0F901F903E
:1008700018958081F4CF1F920F920FB60F9211241A
:100880002F933F938F939F93AF93BF938091EF01EB
:100890009091F001A091F101B091F2013091EE013F
:1008A00023E0230F2D3758F50196A11DB11D20938C
:1008B000EE018093EF019093F001A093F101B093CA
:1008C000F2018091F3019091F401A091F501B091B2
:1008D000F6010196A11DB11D8093F3019093F401DF
:1008E000A093F501B093F601BF91AF919F918F91C5
:1008F0003F912F910F900FBE0F901F90189526E8F3
:10090000230F0296A11DB11DD2CF1F920F920FB6D9
:100910000F9211242F933F934F935F936F937F9385
:100920008F939F93AF93BF93EF93FF93E091F90160
:10093000F091FA01309749F0A685B7858585968DA7
:1009400091FF14C09C918923A1F4FF91EF91BF9175
:10095000AF919F918F917F916F915F914F913F9157
:100960002F910F900FBE0F901F9018959C91892387
:1009700061F7A389B4899C918589809589238C939B
:10098000868997890197F1F7608D718DA685B78566
:10099000558538E020E0CB010197F1F7822F90E0F8
:1009A00095958795282F4C91452309F02068315063
:1009B00091F7868D81FD20958091F80190E0019658
:1009C0008F7399273091F701381799F0A091F801AA
:1009D000B0E0A255BE4F2C938093F801828D938D89
:1009E0000197F1F7A389B4898C919589892B8C9310
:1009F000ACCF868D8160868FF1CF1092FE01109270
:100A0000FD0188EE93E0A0E0B0E08093FF019093B9
:100A10000002A0930102B09302022AE031E0309379
:100A2000FC012093FB0125EC30E030930802209379
:100A3000070224EC30E030930A022093090220ECF4
:100A400030E030930C0220930B0221EC30E0309325
:100A50000E0220930D0222EC30E03093100220931E
:100A60000F0226EC30E03093120220931102109214
:100A70001402109215021092160210921702109290
:100A8000A7021092A6028093A8029093A902A093B5
:100A9000AA02B093AB028CE191E09093A5028093FF
:100AA000A4021092BB021092BA021092BD021092E0
:100AB000BC021092BF021092BE021092C1021092AC
:100AC000C0026091C2026E7F6D7F6093C202669524
:100AD000617081E068270E94C30161E081E00E94AB
:100AE000F101EFEAF0E0E491E093B402EBE9F0E029
:100AF000E491F0E0EE0FFF1FE057FF4F85919491D6
:100B00009093B6028093B50260E080E00E94F1010C
:100B10008091C20281FD04C061E080E00E94C301B7
:100B20001092B002EEEAF0E0E491E093B102EAE95B
:100B3000F0E0E491F0E0EE0FFF1FEA57FF4F8591E0
:100B400094919093B3028093B20210929F021092FC
:100B50009E021092A1021092A0021092A302109283
:100B6000A20250E040E06CE271E08EE992E00E9467
:100B7000A303109299021092980210929B02109275
:100B80009A0210929D0210929C024EE050E06DE29B
:100B900071E088E992E00C94A303CF93DF93CDB783
:100BA000DEB7E3970FB6F894DEBF0FBECDBF7894E3
:100BB00084B5826084BD84B5816084BD85B5826062
:100BC00085BD85B5816085BD80916E008160809313
:100BD0006E0010928100809181008260809381007C
:100BE000809181008160809381008091800081608C
:100BF000809380008091B10084608093B1008091E7
:100C0000B00081608093B00080917A00846080930E
:100C10007A0080917A00826080937A0080917A00D5
:100C2000816080937A0080917A00806880937A0056
:100C30001092C10060E08EE00E94F10161E08DE061
:100C40000E94F1011092BF021092BE021092BD02EA
:100C50001092BC021092BB021092BA028DE991E090
:100C60009093C1028093C0029091B002963108F037
:100C700047C02DEB30E03093BB022093BA022BE942
:100C800031E03093BD022093BC022CE231E030937E
:100C9000BF022093BE022091680084E0983048F0A3
:100CA00031E09E3008F430E081E001C0880F3A95D1
:100CB000EAF7822B809368002DE630E0983050F000
:100CC0002BE630E09E3030F02CE630E0963110F02C
:100CD00030E020E03093B8022093B702292F30E0B3
:100CE000983008F0BFC181E001C0880F9A95EAF7FB
:100CF0008093B9028091C0029091C1020197F1F7EF
:100D00008091BE029091BF02892B49F1E091F901D7
:100D1000F091FA0182E0E43AF80709F1309739F0EE
:100D2000A389B4899C918589809589238C9380912E
:100D3000C2028E7F8093C2021092F8011092F701D6
:100D400084EA92E09093FA018093F901E091B7026E
:100D5000F091B80280819091B902892B8083E09153
:100D60000B02F0910C0282E08083E0910702F09187
:100D700008021082E0910902F0910A028FEC808350
:100D800010921302E0910F02F091100286E080832E
:100D9000E0910D02F0910E02808180618083E091EC
:100DA0000D02F0910E02808188608083E0910D0237
:100DB000F0910E02808180688083E0910D02F091B5
:100DC0000E0280818F7D808368EE73E080E090E08A
:100DD0000E94470240E8642E40E0742E9CEBA92E4E
:100DE00090E0B92E28EA822E20E0922E30E0C32E29
:100DF00030E0D32E4FE150E06CE371E08EE992E0F9
:100E00000E94A303F3018491F5011491F40104916C
:100E1000002309F434C181110E949A01E02FF0E00F
:100E2000EE0FFF1FEA57FF4FA591B4918C91182345
:100E300091E080E009F490E0092F182F19A280E3D7
:100E4000800F88A3BE01605E7F4F8BEF91E00E9410
:100E50002A036AE271E08BEF91E00E942A0360E0CE
:100E60008DE00E94C3010130110509F01DC161E050
:100E70008DE00E94C30168EE73E080E090E00E9484
:100E800047028CE591E00E94390368EC70E080E055
:100E900090E00E94470219A618A61BA61AA61DA636
:100EA0001CA668E972E0CE0188960E94C4031FA6C2
:100EB0001EA619AA18AA1BAA1AAA6EE972E0CE01E8
:100EC0008E960E94C40384E791E00E9439031A823F
:100ED00019821C821B821E821D824DE050E067E851
:100EE00071E0CE0101960E94A303E8A4F9A4E114E5
:100EF000F10409F4C7C00CA51DA501151105B9F031
:100F00008D819E81080F191FB801CE0101960E94A4
:100F10006903882309F4B6C029813A818D819E81B5
:100F2000B701820F931F0E94CD0A1E830D830D818E
:100F30001E810F5F1F4FB801CE0101960E94690309
:100F40008111A5C0CE0101960E9491031BA21AA295
:100F50001DA21CA21FA21EA2BE016F5F7F4FCE0169
:100F600082960E94C403CE0101960E94DB0365E9CC
:100F700071E084EA92E00E942A0368EE73E080E068
:100F800090E00E944702BE016E5D7F4F84EA92E0CE
:100F90000E944C0368EE73E080E090E00E944702FC
:100FA000BE01625D7F4F84EA92E00E944C03BE0165
:100FB000625D7F4F8BEF91E00E944C0368EE73E01F
:100FC00080E090E00E9447026AE184EA92E00E9499
:100FD00092026AE271E084EA92E00E942A0368EEDB
:100FE00073E080E090E00E9447026AE271E084EAE8
:100FF00092E00E942A0364E670E080E090E00E94A4
:10100000470280EA91E00E943903CE0182960E9455
:10101000DB03CE018E960E94DB03CE0188960E94F0
:10102000DB0368EE73E080E090E00E94470284EA10
:1010300092E00E94EE02892B49F084EA92E00E943D
:101040000603682F8BEF91E00E942D01C114D1049B
:1010500009F4D0CE0E94F700882309F4BFCE0E9485
:101060000000BCCE9E3040F42850310981E001C020
:10107000880F2A95EAF73CCE2E503109F7CF10E0C1
:1010800000E0DCCECE0101960E94910350CF298171
:101090003A818D819E8163E971E0820F931F0E94E6
:1010A000CD0A1E830D8352CF60E08DE00E94C30104
:1010B000B8CF88E992E00E94DB038EE992E00E94BB
:1010C000DB038CE191E09093A5028093A4028091D0
:1010D000F9019091FA01845A924071F4E091B702BB
:1010E000F091B80290818091B90280958923808324
:1010F0001092FA011092F90108952F923F924F92A7
:101100005F926F927F928F929F92AF92BF92CF9297
:10111000DF92EF92FF920F931F93CF93DF93CDB7A0
:10112000DEB7CA1BDB0B0FB6F894DEBF0FBECDBF18
:1011300009942A88398848885F846E847D848C84E9
:101140009B84AA84B984C884DF80EE80FD800C81F2
:101150001B81AA81B981CE0FD11D0FB6F894DEBFD5
:101160000FBECDBFED01089597FB072E16F4009436
:1011700007D077FD09D00E94C80807FC05D03EF4CF
:10118000909581959F4F0895709561957F4F089533
:10119000AA1BBB1B51E107C0AA1FBB1FA617B7079D
:1011A00010F0A61BB70B881F991F5A95A9F78095B9
:1011B0009095BC01CD010895EE0FFF1F0590F491AD
:1011C000E02D09940F931F93CF93DF938230910505
:1011D00010F482E090E0E091C502F091C60230E0A8
:1011E00020E0B0E0A0E0309799F42115310509F432
:1011F0004AC0281B390B24303105D8F58A819B81E0
:101200006115710589F1FB0193838283FE0111C091
:10121000408151810281138148175907E0F0481736
:10122000590799F4109761F012960C931297139640
:101230001C933296CF01DF91CF911F910F910895AA
:101240000093C5021093C602F4CF2115310551F069
:101250004217530738F0A901DB019A01BD01DF01F4
:10126000F801C1CFEF01F9CF9093C6028093C50278
:10127000CDCFFE01E20FF31F8193919322503109EC
:1012800039832883D7CF2091C3023091C402232B06
:1012900041F420910201309103013093C402209364
:1012A000C30220910001309101012115310541F463
:1012B0002DB73EB74091040150910501241B350B19
:1012C000E091C302F091C402E217F307A0F42E1BD1
:1012D0003F0B2817390778F0AC014E5F5F4F24179A
:1012E000350748F04E0F5F1F5093C4024093C3026E
:1012F000819391939FCFF0E0E0E09CCFCF93DF9379
:101300000097E9F0FC01329713821282A091C50286
:10131000B091C602ED0130E020E01097A1F42081E9
:101320003181820F931F2091C3023091C40228178C
:10133000390709F061C0F093C402E093C302DF9162
:10134000CF910895EA01CE17DF07E8F54A815B8166
:101350009E0141155105B1F7E901FB83EA834991EB
:101360005991C40FD51FEC17FD0761F4808191815D
:101370000296840F951FE901998388838281938166
:101380009B838A83F0E0E0E012968D919C91139705
:101390000097B9F52D913C911197CD010296820FDE
:1013A000931F2091C3023091C4022817390739F6E0
:1013B000309751F51092C6021092C502B093C40244
:1013C000A093C302BCCFD383C28340815181840FD9
:1013D000951FC817D90761F44E5F5F4F88819981C7
:1013E000480F591F518340838A819B819383828355
:1013F0002115310509F0B0CFF093C602E093C50284
:101400009ECFFD01DC01C0CF13821282D7CFB0E0A6
:10141000A0E0EDE0FAE00C947F088C01009751F415
:10142000CB010E94E2088C01C801CDB7DEB7E0E134
:101430000C949B08FC01E60FF71F9C012250310918
:10144000E217F30708F49DC0D901CD91DC91119703
:10145000C617D70798F0C530D10530F3CE010497F1
:101460008617970708F3C61BD70B2297C193D19312
:101470006D937C93CF010E947E09D6CF5B01AC1A9D
:10148000BD0A4C018C0E9D1EA091C502B091C602F2
:10149000512C412CF12CE12C109731F58091C30295
:1014A0009091C4028815990509F05CC0461657064C
:1014B00008F058C08091000190910101009741F41B
:1014C0008DB79EB74091040150910501841B950B87
:1014D000E817F90708F055C0F093C402E093C3027F
:1014E000F90171836083A0CF8D919C911197129621
:1014F0006C90129713967C901397A815B90559F51F
:101500006C0142E0C40ED11CCA14DB0420F1AC0112
:101510004A195B09DA011296159780F0628273828C
:1015200051834083D9016D937C93E114F10471F0F0
:10153000D7011396FC93EE93129776CF22968C0FD9
:101540009D1FF90191838083F301EFCFF093C602D1
:10155000E093C50269CF4816590608F42C017D01B5
:10156000D3019ACFCB010E94E2087C01009749F099
:10157000AE01B8010E94C40AC8010E947E09870119
:1015800053CF10E000E050CFFB01DC0102C001901E
:101590000D9241505040D8F70895FB01DC010190B5
:1015A0000D920020E1F7089510E0C2E6D0E004C0FB
:1015B000FE010E94DC082196C336D107C9F7F894D2
:0215C000FFCF5B
:1015C2000000C7028000000000002D018D00BA005B
:1015D2007A01EB00C900DD000000000092028D00DC
:1015E20027039102EE02060379020D0A002B383816
:1015F2003031363735313630363338005741524E76
:10160200494E4721546865205761746572204C65C4
:1016120076656C2069732048696768005761746554
:10162200722073656E736F72207472696767657278
:101632006564210053656E64696E67206D6573731E
:101642006167652E2E2E004154202B20434D4753B7
:10165200203D20220041542B434D47463D310D0091
:0E1662004D6573736167652073656E742100BA
:00000001FF
